:020000040000FA
:100000000C944E060C947F060C947F060C947F068D
:100010000C947F060C947F060C947F060C947F064C
:100020000C947F060C947F060C947F060C947F063C
:100030000C947F060C947F060C947F060C947F062C
:100040000C947F060C947F060C947F060C947F061C
:100050000C947F060C947F060C947F060C94BB19BD
:100060000C947F060C9485190C945B190C947F06F4
:100070000C947F060C947F060C947F060C947F06EC
:100080000C947F060C947F060C947F060C947F06DC
:100090000C947F060C947F060C947F060C94051A32
:1000A0000C947F060C947F060C947F060C947F06BC
:1000B0000C947F060C947F060C947F060C947F06AC
:1000C0000C947F060C947F060C947F060C947F069C
:1000D0000C947F060C947F060C947F060C947F068C
:1000E0000C947F060C94F7110C9477080C9427134A
:1000F0000C94C80D0C94140F0C9452090C94A40F7A
:100100000C94DE070C9422170C945D0E0C94B01125
:100110000C943C0F0C9473090C943D090C947809D1
:100120000C94CC160C945D0A0C94970C0C94480912
:100130000C9445090C9474090C94DF070C9439094C
:100140000C946E090C94400E0C94C4080C946A092B
:100150000C94690D0C943F080C9466090C9467117B
:100160000C94E0070C94B1120C9418130C940E0824
:100170000C941D080C94E1070C9467210C945C0905
:100180000C944E090C9441130C94240F0C945809B0
:100190000C9441090C946E130C943A130C9460095E
:1001A0000C9433090C94300F0C9431080C94291BD7
:1001B000000103070F1F3F7F0080C0E0F0F8FCFE46
:1001C00000000000003E5B4F5B3E3E6B4F6B3E1CF1
:1001D0003E7C3E1C183C7E3C181C577D571C1C5E08
:1001E0007F5E1C00183C1800FFE7C3E7FF001824DF
:1001F0001800FFE7DBE7FF30483A060E2629792989
:1002000026407F050507407F05253F5A3CE73C5ABD
:100210007F3E1C1C08081C1C3E7F14227F22145F9A
:100220005F005F5F06097F017F006689956A6060F5
:1002300060606094A2FFA29408047E040810207EEF
:10024000201008082A1C08081C2A08081E10101074
:10025000100C1E0C1E0C30383E3830060E3E0E06BA
:10026000000000000000005F00000007000700140D
:100270007F147F14242A7F2A1223130864623649CC
:100280005620500008070300001C224100004122B4
:100290001C002A1C7F1C2A08083E080800807030B9
:1002A0000008080808080000606000201008040228
:1002B0003E5149453E00427F40007249494946212E
:1002C00041494D331814127F1027454545393C4AA2
:1002D00049493141211109073649494936464949B9
:1002E000291E000014000000403400000008142201
:1002F000411414141414004122140802015909066F
:100300003E415D594E7C1211127C7F494949363E6F
:10031000414141227F4141413E7F494949417F0955
:100320000909013E414151737F0808087F00417F60
:1003300041002040413F017F081422417F4040405E
:10034000407F021C027F7F0408107F3E4141413EF6
:100350007F090909063E4151215E7F091929462678
:100360004949493203017F01033F4040403F1F207C
:1003700040201F3F4038403F631408146303047853
:1003800004036159494D43007F4141410204081073
:1003900020004141417F04020102044040404040AE
:1003A000000307080020545478407F28444438381C
:1003B00044444428384444287F385454541800088E
:1003C0007E090218A4A49C787F0804047800447D68
:1003D00040002040403D007F1028440000417F4005
:1003E000007C047804787C08040478384444443859
:1003F000FC1824241818242418FC7C080404084839
:100400005454542404043F44243C4040207C1C2089
:1004100040201C3C4030403C44281028444C9090E4
:10042000907C4464544C440008364100000077003E
:1004300000004136080002010204023C2623263C4B
:100440001EA1A161123A4040207A385454555921D6
:1004500055557941225454784221555478402054BE
:100460005579400C1E52721239555555593954540C
:10047000545939555454580000457C410002457D7B
:10048000420001457C407D1211127DF0282528F0A4
:100490007C545545002054547C547C0A097F4932D1
:1004A000494949323A4444443A324A4848303A4148
:1004B00041217A3A42402078009DA0A07D3D4242F1
:1004C000423D3D4040403D3C24FF2424487E49437A
:1004D000662B2FFC2F2BFF0929F620C0887E0903ED
:1004E00020545479410000447D413048484A323814
:1004F0004040227A007A0A0A727D0D19317D262940
:10050000292F28262929292630484D402038080837
:10051000080808080808382F10C8ACBA2F1028346B
:10052000FA00007B000008142A142222142A14085E
:100530005500550055AA55AA55AAFF55FF55FF006D
:100540000000FF00101010FF00141414FF00101022
:10055000FF00FF1010F010F0141414FC001414F736
:1005600000FF0000FF00FF1414F404FC1414171023
:100570001F10101F101F1414141F00101010F00073
:100580000000001F101010101F10101010F01000AD
:100590000000FF101010101010101010FF100000BD
:1005A00000FF140000FF00FF00001F10170000FCF8
:1005B00004F414141710171414F404F40000FF00CA
:1005C000F714141414141414F700F7141414171453
:1005D00010101F101F141414F4141010F010F00059
:1005E000001F101F0000001F14000000FC1400007A
:1005F000F010F01010FF10FF141414FF141010105E
:100600001F00000000F010FFFFFFFFFFF0F0F0F010
:10061000F0FFFFFF0000000000FFFF0F0F0F0F0FA4
:100620003844443844FC4A4A4A347E0202060602F0
:100630007E027E0263554941633844443C04407E57
:10064000201E2006027E020299A5E7A5991C2A49D0
:100650002A1C4C7201724C304A4D4D30304878485B
:1006600030BC625A463D3E494949007E0101017E47
:100670002A2A2A2A2A44445F444440514A4440409A
:10068000444A51400000FF0103E080FF00000808D9
:100690006B6B083612362436060F090F0600001859
:1006A000180000001010003040FF0101001F010180
:1006B0001E00191D1712003C3C3C3C0000000000CD
:1006C000000020002300260029002C002F0032000B
:1006D0000001000003010601090100000A0B0209E4
:1006E0000C0D0E08070304010000000000000000CC
:1006F00000000000000000000000000000000000FA
:1007000000000000000012111000000000000000B6
:1007100000000000000000000000000000000000D9
:1007200000002100240027002A002D0030003300A3
:1007300001010000040107010A01DB40A4A62EAF5D
:100740002000A1C8D300408DAED580A801021020A2
:1007500020080810204010204080020102010804F7
:10076000020101020408102040808040201008048B
:1007700002018004020180402010080402010804E4
:100780000201010204081020408001020408102028
:10079000408000002200250028002B002E003100A0
:1007A000340002010000050108010B0105050505E3
:1007B000070508080808020202020A0A08080404D9
:1007C0000404010101010101010103030303030307
:1007D0000303040707070C0C0C0C0C0C0C0C020296
:1007E000020206060606060606060B0B0B0B0B0B93
:1007F0000B0B000060000000000000000000000083
:10080000000000E000000000000000000000000008
:100810000001E000000000000000000000000000F7
:1008200001F00000000000000000000000000003D4
:10083000F00000000000000000000000000007F0D1
:100840000000000000000000000000000007F800A9
:100850000000000000000000000000000FF8000091
:100860000003C0007E000001E0007F0FF8000000E0
:1008700003C000FE000001E000FFEFF800000003ED
:10088000C000FE000001E000FFFFF800000003C010
:1008900000F00000000F007FFE7FC0000003C000DA
:1008A000F00000000F003FFE7FF83FF1FBCFFCFEA1
:1008B000F3BC3DEFE01FFE7FFF7FFBFFDFFEFEFF8F
:1008C000BC3DEFE01FC6FFFF7FFBFFDFFEFEFFBC6E
:1008D0003DEFE00FE3C7FE787BC3DE1EF0FFBC3DBB
:1008E000EF0007FF87FC787BC3DE1EF0F83C3DEF8E
:1008F0000001FFFFF0007BC3C01EF0F03C3DEF00A5
:1009000001F37FE03FFBC3CFFEF0F03C3DEF00037F
:10091000E33F807FFBC3DFFEF0F03C3DEF0007E7E5
:100920003C00787BC3DE1EF0F03C3DEF0007FFBECD
:1009300000787BC3DE1EF0F03C3DEF0007FFFE00B9
:10094000787BC3DE1EF0F03C3DEF000FFFFE007F22
:10095000FBFFDFFEF0F03FFDEFE00FFFFF007FFB4E
:10096000FFDFFEF0F03FFDEFE00FF9FF003E79F909
:10097000CF9EF0F01F3DE7E01FF1FF0000000000F8
:10098000000000000000001F80FF007FFFFFFFFF4E
:10099000FFFFFFFFFFE01C007F007FFFFFFFFEB4B3
:1009A0006D888D18E000001F007FFFFFFFFE95ADF2
:1009B0007DB577E000000F007FFFFFFFFEA5AD9D36
:1009C0008D19E0000006007FFFFFFFFEB5ADEDB51D
:1009D0007EE0000000000001800000000000000038
:1009E0000000038000000000000000000007C000BD
:1009F000000000000000000007C000000000000030
:100A00000000000FC00000000000000000001FE018
:100A10000000000000000000001FE00000000000D7
:100A2000000000003FE00000000000000000003F68
:100A3000F00000000000000000007FF00000000057
:100A40000000001FF87FF0000000000000003FFEE3
:100A50007FF0000000000000003FFF7FF00000007A
:100A6000000000001FFFFBE0000000000000000F7E
:100A7000FFF9FFC00000000000000FFFF9FFF800C1
:100A8000000000000007FFF1FFFF00000000000071
:100A900003FC73FFFF80000000000001FE3FFFFF2A
:100AA00080000000000000FF1E0FFF00000000009B
:100AB00000007FFE1FFC000000000000003FFFFF61
:100AC000F8000000000000000FDFFFE00000000061
:100AD0000000001F19FFC0000000000000003F3CA4
:100AE000FF00000000000000007E7CF80000000015
:100AF000000000007FFE7C0000000000000000FFFE
:100B0000FFFC0000000000000000FFFFFE000000EE
:100B10000000000000FFFFFE0000000000000001D8
:100B2000FFEFFE0000000000000001FFCFFE00000C
:100B3000000000000003FF07FE00000000000000AE
:100B400003FC07FE0000000000000003F003FE00AD
:100B5000000000000000018000FE00000000000016
:100B6000000000007E000000000000000000003EC9
:100B7000000000000000000000000C000000000069
:100B800000078000FC000003C0000000078001FC9B
:100B9000000003C0000000078001FC000003C0004B
:100BA0000000078001E00000001E00000007800137
:100BB000E00000001E007FE3F79FF9FDE7787BDF90
:100BC000C0FFF7FFBFFDFDFF787BDFC0FFF7FFBF72
:100BD000FDFDFF787BDFC0F0F787BC3DE1FF787B50
:100BE000DE00F0F787BC3DE1F0787BDE0000F787A0
:100BF000803DE1E0787BDE007FF7879FFDE1E078D4
:100C00007BDE00FFF787BFFDE1E0787BDE00F0F7D9
:100C100087BC3DE1E0787BDE00F0F787BC3DE1E09A
:100C2000787BDE00F0F787BC3DE1E0787BDE00FFFB
:100C3000F7FFBFFDE1E07FFBDFC0FFF7FFBFFDE196
:100C4000E07FFBDFC07CF3F39F3DE1E03E7BCFC064
:100C50000000000000000000000000FFFFFFFFFF99
:100C6000FFFFFFFFFFC0FFFFFFFFFD68DB111A3131
:100C7000C0FFFFFFFFFD2B5AFB6AEFC0FFFFFFFF26
:100C8000FD4B5B3B1A33C0FFFFFFFFFD6B5BDB6A75
:100C9000FDC02200FF210000291B672111241FBE77
:100CA000CFEFD1E2DEBFCDBF00E00CBF1FE0A0E080
:100CB000B2E0E0E9F7E400E00BBF02C007900D925C
:100CC000AC34B107D9F721E1ACE4BFE001C01D921B
:100CD000AA30B207E1F716E0CDE4D6E000E006C0A6
:100CE00021970109802FFE010E947D22CC34D1077B
:100CF00080E00807A9F70E94AC1B0C94B6230C9463
:100D00000000CF92DF92EF92FF920F931F93CF9349
:100D1000DF93CDB7DEB7DA950FB6F894DEBF0FBE1E
:100D2000CDBFFE01EF52FF4F71836083DA01189649
:100D3000B383A2839B012D5F3F4F35832483B78309
:100D4000A683318720871596B387A2872E5F3F4FF2
:100D500035872487B787A687318B208B538B428BAF
:100D60002C5F3F4F358B248B578B468B318F208FD9
:100D70001497B38FA28F2E5F3F4F358F248FB78F7D
:100D8000A68F31A320A31597B3A3A2A32D5F3F4F36
:100D900035A324A3B7A3A6A331A720A7445F5F4F21
:100DA00053A742A775A764A720E1C22ED12CD7A6CE
:100DB000C6A69E0127593F4F48E6D9011D924A9584
:100DC000E9F704E110E01A8309839C838B832EE109
:100DD00030E03E832D8398878F833A8729879C0153
:100DE0002A5F3F4F3C872B874CE150E05E874D8761
:100DF000388B2F875A8B498BBC01685F7F4F7C8B68
:100E00006B8B4AE150E05E8B4D8B788F6F8B5A8FE6
:100E1000498F6C5F7F4F7C8F6B8F48E150E05E8F16
:100E20004D8F78A36F8F5AA349A36E5F7F4F7CA32A
:100E30006BA347E150E05EA34DA378A76FA35AA729
:100E400049A77C01B3E1EB0EF11CFCA6EBA643E144
:100E500050E05EA74DA7F8AAEFA65AAB49AB7C01BC
:100E6000A6E1EA0EF11CFCAAEBAADEAACDAAF8AE16
:100E7000EFAADAAEC9AE7C01B2E1EB0EF11CFCAE1A
:100E8000EBAEAEE0B0E0BEAFADAF2196FFAEEEAEE2
:100E900021972396BFAFAEAF23977C01A0E1EA0E66
:100EA000F11C2596FFAEEEAE2597ACE0B0E027969C
:100EB000BFAFAEAF27972996FFAEEEAE29972B9620
:100EC000BFAFAEAF2B972D967FAF6EAF2D97AAE039
:100ED000B0E02F96BFAFAEAF2F9761967FAF6EAFEA
:100EE00061976396BFAFAEAF6397DC0117966596C7
:100EF000BFAFAEAF65976BE070E067967FAF6EAF48
:100F000067976996BFAFAEAF69976B967FAF6EAFCD
:100F10006B9709966D969FAF8EAF6D976F965FAF8B
:100F20004EAF6F97A1969FAF8EAFA197A3965FAF7D
:100F30004EAFA397A5963FAF2EAFA597A7961FAF2D
:100F40000EAFA797A9963FAF2EAFA997CE010196F6
:100F50007C019F01245D3F4FD7014D915C91CF01F2
:100F6000DC0114966D917C914617570759F4D7010F
:100F700012960D911C91DC0116966D917C910617CD
:100F80001707D1F004962817390751F7B4E0EB0E94
:100F9000F11CEE16FF0601F780E0D3950FB6F8942A
:100FA000DEBF0FBECDBFDF91CF911F910F91FF909C
:100FB000EF90DF90CF90089581E0EFCF08950895EE
:100FC0000895AF92BF92CF92DF92EF92FF920F936C
:100FD0001F93CF93DF936C017B018B01040F151FCF
:100FE000EB015E01AE18BF08C017D10759F0699137
:100FF000D601ED91FC910190F081E02DC60119958B
:10100000892B79F7C501DF91CF911F910F91FF9047
:10101000EF90DF90CF90BF90AF900895FC01538D7B
:10102000448D252F30E0842F90E0821B930B5417C2
:1010300010F0CF96089501970895FC01918D828D4F
:10104000981761F0A28DAE0FBF2FB11D5D968C91E8
:10105000928D9F5F9F73928F90E008958FEF9FEF27
:101060000895FC01918D828D981731F0828DE80FE3
:10107000F11D858D90E008958FEF9FEF0895FC019D
:10108000918D228D892F90E0805C9F4F821B91096A
:101090008F73992708958DE190E10E943F0821E028
:1010A000892B09F420E0822F0895FC01A48DA80F5C
:1010B000B92FB11DA35ABF4F2C91848D90E001969A
:1010C0008F739927848FA689B7892C93A089B189BA
:1010D0008C91837080648C93938D848D981306C05B
:1010E0000288F389E02D80818F7D80830895EF92BF
:1010F000FF920F931F93CF93DF93EC0181E0888FD2
:101100009B8D8C8D98131AC0E889F989808185FFA1
:1011100015C09FB7F894EE89FF896083E889F98943
:1011200080818370806480839FBF81E090E0DF9145
:10113000CF911F910F91FF90EF900895F62E0B8D98
:1011400010E00F5F1F4F0F731127E02E8C8D8E1153
:101150000CC00FB607FCFACFE889F989808185FFBA
:10116000F5CFCE010E945508F1CFEB8DEC0FFD2F8E
:10117000F11DE35AFF4FF0829FB7F8940B8FEA8975
:10118000FB8980818062CFCFCF93DF93EC01888D84
:101190008823B9F0AA89BB89E889F9898C9185FDF2
:1011A00003C0808186FD0DC00FB607FCF7CF8C9180
:1011B00085FFF2CF808185FFEDCFCE010E945508DB
:1011C000E9CFDF91CF91089580E090E0892B29F05D
:1011D0000E944B0881110E94000080E090E0892B62
:1011E00049F080E090E0892B29F00E9400008111F5
:1011F0000E94000080E090E0892B49F080E090E0C0
:10120000892B29F00E94000081110E94000080E0DB
:1012100090E0892B49F080E090E0892B29F00E9432
:10122000000081110C94000008958150823108F073
:101230005AC0E82FF0E08827EF5DF64F8F4F0C94EF
:101240007D2241094509330939093D0973094809D6
:101250004E09520958095C09600966096A0973094F
:101260006E0974097809809180008F7780938000DF
:101270000895809180008F7DF9CF80918000877FD5
:10128000F5CF84B58F7784BD089584B58F7DFBCF6E
:101290008091B0008F778093B00008958091B00066
:1012A0008F7DF9CF809190008F7780939000089583
:1012B000809190008F7DF9CF80919000877FF5CF4E
:1012C0008091A0008F778093A00008958091A00066
:1012D0008F7DF9CF8091A000877FF5CF809120018D
:1012E0008F77809320010895809120018F7DF9CF21
:1012F00080912001877FF5CFCF93DF93282F30E0B7
:10130000F901E652F94F8491F901E45BF84FD49169
:10131000F901E455F84FC491CC23A1F081110E944A
:101320001509EC2FF0E0EE0FFF1FE054F94FA591E7
:10133000B491EC91ED2381E090E009F480E0DF913D
:10134000CF91089580E090E0FACF1F93CF93DF9381
:10135000282F30E0F901E652F94F8491F901E45B5E
:10136000F84FD491F901E455F84FC491CC23A9F07A
:10137000162F81110E941509EC2FF0E0EE0FFF1FD0
:10138000EE56F84FA591B4918FB7F894EC911111E6
:1013900008C0D095DE23DC938FBFDF91CF911F91E2
:1013A0000895DE2BF8CFCF93DF9390E0FC01E45B50
:1013B000F84F24918455984FFC0184918823D1F0F3
:1013C00090E0880F991FFC01E05EF84FA591B49161
:1013D000FC01EE56F84FC591D491623071F49FB77D
:1013E000F8943C91822F809583238C93E8812E2B57
:1013F00028839FBFDF91CF9108958FB7F894EC9128
:101400002E2B2C938FBFF6CF3FB7F894809101100D
:1014100090910210A0910310B091041026B5A89BE2
:1014200005C02F3F19F00196A11DB11D3FBFBA2F76
:10143000A92F982F8827BC01CD01620F711D811D36
:10144000911D42E0660F771F881F991F4A95D1F7BB
:1014500008958F929F92AF92BF92CF92DF92EF92B8
:10146000FF926B017C010E94040A4B015C01C114D4
:10147000D104E104F104B9F00E94040A6819790961
:101480008A099B09683E73408105910580F321E03C
:10149000C21AD108E108F10888EE880E83E0981E90
:1014A000A11CB11CE4CFFF90EF90DF90CF90BF90D4
:1014B000AF909F908F9008950895FC016370668BA4
:1014C0008481958126813781613039F0633029F03C
:1014D0009187808733872287089531872087938774
:1014E000828708952F923F924F925F926F927F92E0
:1014F0008F929F92AF92BF92CF92DF92EF92FF9224
:101500000F931F93CF93DF93CDB7DEB76A970FB6D4
:10151000F894DEBF0FBECDBF9A8F898F7A8369831F
:101520004A01D22E18870F833701BC2CDC01599653
:101530002D913C915A972115310509F015C1189646
:101540008D919C911997681779070CF0D7C11A965D
:101550008D919C91481759070CF0D0C14C2C512CFF
:10156000B6E0CB9E600D711D11247C876B8716162B
:1015700017060CF0C3C1EA2DF0E0FA87E98793E083
:10158000EE0FFF1F9A95E1F7F88BEF87CF01840FDD
:10159000951F181619060CF0B1C1A98DBA8D589671
:1015A0008C91811104C0BFEABD1508F4D394A98DB4
:1015B000BA8DED91FC9111970284F385E02DCD0158
:1015C0001995B5E0DB9EC0011124E981FA81FC8305
:1015D000EB83312C212C9C0120543E4F388F2F8BD4
:1015E0004A2D50E05E8B4D8BEF89F88DE20DF31D97
:1015F00044919E828D82D12CC12C69817A81620DA9
:10160000731D7A8B698B842F90E09C8B8B8BE98D7B
:10161000FA8DA081B18140FF82C0F1E0BF126FC09E
:10162000AF126DC01C96ED91FC912F813885A401FD
:101630004C0D5D1D69897A89898D9A8D1995EB8983
:10164000FC89F595E7954E2F5FEFC51AD50A6D8198
:101650007E818D899E89680F791F7E836D8398E0D6
:10166000C916D10481F6AFEF2A1A3A0AEB81FC8140
:10167000E40DF51DFC83EB83F5E02F16310409F032
:10168000B3CF2F81388526153705B9F0A98DBA8DCE
:10169000ED91FC91B1E0BB1257C0AB1255C069810E
:1016A0007A816B5F7F4F0088F189E02D830128E00C
:1016B00030E0A401898D9A8D1995A98DBA8DED918F
:1016C000FC9111970688F789E02DCD016A960FB637
:1016D000F894DEBF0FBECDBFDF91CF911F910F9168
:1016E000FF90EF90DF90CF90BF90AF909F908F9042
:1016F0007F906F905F904F903F902F9019941E961F
:10170000ED91FC91EF80F88409851A8592014D8155
:101710005E816B817C81898D9A8D199590CF2F8107
:1017200038852615370509F48ACF31E0B31207C092
:10173000A31205C01C96ED91FC91930178CF1E96E3
:10174000ED91FC917301E0CF6B857C85641975097F
:101750000684F785E02D73010F8518899201A40195
:10176000898D9A8D1995A9CFF90134969491329764
:1017700045915491D91AB7E0DB9E400D511D1124BB
:10178000F901259134913C8B2B8BFA0125903490F3
:10179000FA013296749031963491398B3296649076
:1017A0003196449041E04C1518F04A1508F07FC07E
:1017B000662D062C000C770B7C836B83842D042C08
:1017C000000C990B9E838D83A98DBA8DED91FC91B0
:1017D00011970284F385E02DCD011995512CD12C60
:1017E000C12CEA2DF0E0FA87E9872B2D30E03C8709
:1017F0002B87A401440D511D47FC5A95588F4F8BE0
:1018000069817A81660D711D67FC7A957E876D8787
:101810007989C71608F051CF2C2D30E04D815E81BB
:10182000420F531FA985BA854A9FC0014B9F900D57
:101830005A9F900D1124FC01E80DF91DF88BEF87DC
:10184000852D612C4F89588D420F531F5E8B4D8B18
:10185000671408F050C044244394480E877041F444
:10186000C1010196EB89FC89E20DF31DD4901C01A6
:10187000D7FE19C0A98DBA8DED91FC91662D70E04F
:10188000B1E0BB1219C0AB1217C02D853E85620FA7
:10189000731F0484F585E02D2F8138854D895E897D
:1018A000898D9A8D1995DD0C6394842DD1CF1E827C
:1018B0001D821C821B8288CF4B815C81640F751F47
:1018C000AB85BC856A9FC0016B9F900D7A9F900D80
:1018D000112469817A81680F791F0684F785E02DCC
:1018E000EF80F88409851A859D014F855889898D77
:1018F0009A8D1995D8CF570CC3948ACF6A960FB694
:10190000F894DEBF0FBECDBFDF91CF911F910F9135
:10191000FF90EF90DF90CF90BF90AF909F908F900F
:101920007F906F905F904F903F902F9008958F928F
:101930009F92AF92CF92EF92FF920F931F93CF930C
:10194000DF93EC01262F898D9A8D009709F051C005
:101950006A30D1F41D861C868D8948E0849F9001F1
:1019600011248E859F85820F931F9F878E8781E02C
:1019700090E0DF91CF911F910F91FF90EF90CF906A
:10198000AF909F908F9008956D3089F3CC88AD888B
:101990008F898823C1F08C859D8536E0C39E800D9C
:1019A000911D1124488559854817590764F44E85BF
:1019B0005F851D861C8638E0A39EC0011124840F1C
:1019C000951F9F878E87EA88FB88088919894E852D
:1019D0005F856C857D85CE010E94720A2C898C857D
:1019E0009D8546E0249F800D911D11249D878C8745
:1019F000BECF6A3069F41D861C86FC013896E491DE
:101A00002D898E859F85E29F800D911D1124ADCF7C
:101A10006D3009F4ACCFFC0134963491631708F4AF
:101A2000A6CF3296E491E61708F4A1CFFC013296D6
:101A300085909490462F431B342F47E0349F800CB1
:101A4000911C1124F401329634913196E4913323A0
:101A5000A9F1EE2399F1CC88F4013596E491AD8893
:101A60004F89442301F10E2E000CFF0BE30FF11DF3
:101A7000CE9EA001CF9E500D11246C857D85460F12
:101A8000571F68857985641775076CF44E855F85E7
:101A90001D861C86FC013896E491AE9E400D511DBA
:101AA00011245F874E87EA88FB88088919894E854B
:101AB0005F856C857D85CE010E94720AF4013496A3
:101AC000E4912C898C859D85E29F800D911D1124C8
:101AD0008DCF6F927F928F929F92AF92BF92CF9253
:101AE000DF92EF92FF920F931F93CF93DF93EC015E
:101AF0006B015A0139014801E881F9810284F385BB
:101B0000E02D1995E881F9810288F389E02D87019C
:101B10009301A501B601CE011995A501480D591DE6
:101B200041505109E881F9810288F389E02D930140
:101B3000B601CE011995E881F9810088F189E02D7F
:101B40009401A501B601CE011995C60CD71CB601AA
:101B500061507109E881F9810088F189E02D9401D3
:101B6000A501CE011995E881F9810688F789E02D54
:101B7000CE01DF91CF911F910F91FF90EF90DF90F9
:101B8000CF90BF90AF909F908F907F906F9019945F
:101B90006F927F928F929F92AF92BF92CF92DF927D
:101BA000EF92FF920F931F93CF93DF935C01EB01B2
:101BB0006A01490138018701DC01ED91FC9162174E
:101BC000730719F5641675062CF0962D872D3A01CA
:101BD000C92ED82E9601261937092F5F3F4F048C46
:101BE000F58DE02DA301BE01C5011995DF91CF91BF
:101BF0001F910F91FF90EF90DF90CF90BF90AF902B
:101C00009F908F907F906F9008954615570591F49F
:101C10002617370724F0892D4B01C22FD82F9E019C
:101C2000281939092F5F3F4F068CF78DE02DA6014B
:101C3000B401DACF0284F385E02D1995D501ED9139
:101C4000FC910488F589E02D83019401A601BE0171
:101C5000C5011995D501ED91FC910688F789E02D14
:101C6000C501DF91CF911F910F91FF90EF90DF9011
:101C7000CF90BF90AF909F908F907F906F9019946E
:101C8000EF92FF920F931F93DC011A960D911C9116
:101C90001B9718962D913C911997ED91FC9100A0FE
:101CA000F1A1E02D7B0150E040E070E060E019958B
:101CB0001F910F91FF90EF9008954F925F926F9256
:101CC0007F928F929F92AF92BF92CF92DF92EF92CC
:101CD000FF920F931F93CF93DF936C012B015A0157
:101CE00039014801DC01ED91FC910284F385E02D7E
:101CF0001995E201640C751CD601ED91FC91C61595
:101D0000D7055CF40088F189E02D87019401A501D5
:101D1000BE01C60119952196EFCF0688F789E02DFF
:101D2000C601DF91CF911F910F91FF90EF90DF904F
:101D3000CF90BF90AF909F908F907F906F905F906B
:101D40004F9019948F929F92AF92BF92CF92DF9251
:101D5000EF92FF920F931F93CF93DF93EC015B0100
:101D60004A016901E881F9810284F385E02D199522
:101D700095012C0D3D1D21503109E881F981048820
:101D8000F589E02D78018401A401B501CE011995F2
:101D9000E881F9810688F789E02DCE01DF91CF91A6
:101DA0001F910F91FF90EF90DF90CF90BF90AF9079
:101DB0009F908F9019948F929F92AF92BF92CF92E3
:101DC000DF92EF92FF920F931F93CF93DF93EC017B
:101DD0005B014A0169017801E881F9810284F38598
:101DE000E02D1995C80CD91C860101501109E88114
:101DF000F9810488F589E02D9501A401B501CE0192
:101E00001995E881F9810688F789E02DCE01DF91E7
:101E1000CF911F910F91FF90EF90DF90CF90BF90E7
:101E2000AF909F908F901994EF92FF920F931F9312
:101E3000DC01ED91FC9100A0F1A1E02D19951F911D
:101E40000F91FF90EF9008950F931F93DC01ED9198
:101E5000FC91068CF78DE02D19951F910F91089537
:101E60000F931F93DC01ED91FC91048CF58DE02D17
:101E700019951F910F910895DC01ED91FC9100845B
:101E8000F185E02D19943F924F925F926F927F926D
:101E90008F929F92AF92BF92CF92DF92EF92FF927A
:101EA0000F931F93CF93DF935C017B014A0169017C
:101EB000390187E0680E711C93E0759467949A95D8
:101EC000E1F72B01400E511E10E000E0312CD0E074
:101ED000C0E0CE0187709927330C892B59F4FE019D
:101EE00083E0F595E7958A95E1F7E00FF11FE80D9E
:101EF000F91D349037FE0AC021E030E0A701B5019A
:101F00006C0F7D1F86EC90E10E943C0F2196CC1651
:101F1000DD06F9F68FEFE81AF80A060D171DE4142E
:101F2000F504A9F6DF91CF911F910F91FF90EF90EB
:101F3000DF90CF90BF90AF909F908F907F906F90E9
:101F40005F904F903F9008952F923F924F925F92F3
:101F50006F927F928F929F92AF92BF92CF92DF92B9
:101F6000EF92FF920F931F93CF93DF9300D000D097
:101F7000CDB7DEB73C016A013E832D83FC82EB8244
:101F80005801A41AB50AB7FE03C0B194A194B108D0
:101F90008D809E80861A970A97FE03C09194819443
:101FA00091088A149B045CF0902F812F0D811E8173
:101FB0009D838E839C2D8D2D6B01692F782F0C15A1
:101FC0001D055CF09D818E817E836D83692F782F46
:101FD000902F812F8601C92ED82E1601201A310A82
:101FE0002B012D813E81421A530A57FE03C05194A2
:101FF00041945108710137FE03C03FEFE31AF30A21
:10200000F594E7948D819E81861797075CF5A1E092
:10201000B0E0BA83A983C016D1064CF1D301ED918B
:10202000FC910484F585E02D2B813C81A8016D8114
:102030007E818A149B041CF04D815E81B801C3012E
:102040001995E418F508F7FE0AC02D813E818981B3
:102050009A81280F391F3E832D83E20CF31C0F5FFA
:102060001F4FD9CF2FEF3FEF3A832983D4CF269646
:102070000FB6F894DEBF0FBECDBFDF91CF911F9199
:102080000F91FF90EF90DF90CF90BF90AF909F9017
:102090008F907F906F905F904F903F902F9008951A
:1020A000EF92FF920F931F93CF93DF93EC01EC809D
:1020B000FD806E157F050CF070C057FF04C0240F23
:1020C000351F50E040E08E819F81FA01E20FF31F3F
:1020D0008E179F071CF49C01241B350B1216130648
:1020E0000CF05BC0922F842F8695869586958E9DE9
:1020F000D0018F9DB00D11246A0F7B1FAF8DB8A149
:10210000A60FB71F477049F188E0841B482F682F3E
:1021100070E0FB01E854FE4FE491281708F063C01B
:10212000621B71092FEF30E002C0359527956A9543
:10213000E2F7E2230130110539F0B0F10230110568
:1021400061F58C91E82702C08C91E82BEC939417F1
:1021500020F12C813D81A20FB31FE92FE41BE83051
:1021600078F00230110521F58E2F9C9190959C936B
:102170002C813D81A20FB31F88508830B0F7E770E3
:10218000EE2359F0F0E0E055FE4FE49101301105E7
:10219000F9F010F10230110519F1DF91CF911F9183
:1021A0000F91FF90EF900895E0958C91E823CECFAA
:1021B00081E00115110509F480E081959E2F8C9333
:1021C0002C813D81A20FB31F98509830C0F7D7CF14
:1021D0008C91E82BEC93E1CFE0958C91E823FACF3A
:1021E0008C91E827F7CF0130110509F4ADCFE0F26B
:1021F0000230110509F4A5CFAE0DBF1DAECF0F9370
:102200001F93CF93DF9377FF04C0260F371F70E033
:1022100060E0DC011496CD91DC91FB01E20FF31F2D
:10222000CE17DF071CF49E01261B370B1216130670
:102230004CF5FA0157FD3796A3E0F595E795AA9579
:10224000E1F7EC9FD001ED9FB00DFC9FB00D112484
:102250006A0F7B1FDC015F96ED91FC91E60FF71F83
:102260004770552781E090E001C0880F4A95EAF752
:10227000482F0130110559F0A8F02E0F3F1F0230F2
:102280001105E1F0DF91CF911F910F9108952E0F6D
:102290003F1FE217F307B1F38191DF011197842B00
:1022A0008C93F7CF80952E0F3F1FE217F30751F362
:1022B0009191DF01119798239C93F7CFE217F307D1
:1022C00009F38191DF01119784278C93F7CF0F9346
:1022D0001F93FA01DC0156964C9156974230E9F073
:1022E0004330A1F1413061F514964D915C91DA01D2
:1022F000AE1BBF0BFD01E21BF30B77FD0BC0DC0136
:1023000016964D915C916417750724F4AB01BF01DB
:102310000E94FF101F910F91089514964D915C91AA
:10232000DA01A61BB70BBD0161507109DC011696DD
:102330004D915C91DA01AE1BBF0BFD01E21BF30B6B
:1023400077FDE8CFAF010E945010E4CF16964D9173
:102350005C91DA01A61BB70BBD0161507109CDCFAD
:102360000F931F93FA01DC0156964C915697423019
:10237000A9F0433091F1413019F514964D915C91DB
:10238000DA01AE1BBF0BFD013197F7FD04C0AB01B5
:10239000BF010E9450101F910F91089514964D9106
:1023A0005C91DA01A61BB70BBD01DC0116964D91BD
:1023B0005C91DA01AE1BBF0BFD013197621B730B01
:1023C000F7FDE9CFDC0116964D915C91E417F50716
:1023D00014F7AF010E94FF10DECF16964D915C916D
:1023E000DA01A61BB70BBD01621B730BCECFFC013C
:1023F00077FD64C080859185681779070CF05EC011
:1024000057FD5CC082859385481759070CF056C06C
:1024100086898230B1F0833029F1813041F48481A2
:102420009581841B950BAB01BC0161507109213072
:10243000310509F108F443C02230310509F463C0C5
:10244000089584819581DC01A61BB70BBD01615005
:10245000710986819781DC01A41BB50BAD01415048
:102460005109E5CF86819781861B970BBA01AC0194
:1024700041505109DCCFCA0157FD0796A3E095955D
:102480008795AA95E1F7A481B5818A9F90018B9FDA
:10249000300D9A9F300D1124620F731F078CF0A12D
:1024A000E02DE60FF71F4770552721E030E001C00F
:1024B000220F4A95EAF78081822B80830895CA0112
:1024C00057FD079633E0959587953A95E1F7A481F6
:1024D000B5818A9F90018B9F300D9A9F300D1124FA
:1024E000620F731F078CF0A1E02DE60FF71F4770F6
:1024F000552781E090E001C0880F4A95EAF7809562
:1025000090818923DACFCA0157FD079623E095957C
:1025100087952A95E1F7A481B5818A9F90018B9FC9
:10252000300D9A9F300D1124620F731F078CF0A19C
:10253000E02DE60FF71F4770552721E030E001C07E
:10254000220F4A95EAF780818227B7CF08958EBD82
:1025500000000DB407FEFDCF8EB508958CBD9DBD66
:10256000089508952091B20F260F3327331F21328B
:102570003105ECF42091D60FFC0190E080E024308E
:1025800069F082E00895A091B20F2191AC014E56FE
:10259000504FA40FB52FB11D2C930196861798F3B9
:1025A0008091B20F680F6093B20F80E0089581E0D0
:1025B00008951092D60F81E08093D80F1092D70F14
:1025C00061E084E10E94A50961E085E10E94A5091E
:1025D000E9EBF0E080818E7F808380818D7F808336
:1025E00088E48093B80085E48093BC000895CF937D
:1025F000DF9391E09093910F8823B9F0C091B800D8
:10260000D091BA008091BC008A7B8093BC0060E0CE
:1026100084E10E94A50960E085E10E94A5090E946D
:10262000D912D093BA00C093B800DF91CF9108952A
:10263000E0910B1080910A10E81730F4F0E0E459B3
:10264000F04F808190E008958FEF9FEF0895909173
:102650000B1080910A102FEF3FEF981748F4E92FE5
:10266000F0E0E459F04F208130E09F5F90930B1031
:10267000C901089580910A1090910B10891B990B44
:102680000895CF92DF92EF92FF920F931F93CF9313
:10269000DF937C01CB018A0120911C10222389F059
:1026A000EB016B01C40ED51ECC15DD0569F06991F7
:1026B000D701ED91FC910190F081E02DC7011995B2
:1026C000F3CF642F0E94B212C801DF91CF911F9106
:1026D0000F91FF90EF90DF90CF900895CF93DF930D
:1026E0001F92CDB7DEB7698320911C102223F9F029
:1026F00020911910203258F021E030E0FC013383A2
:10270000228390E080E00F90DF91CF910895809137
:102710001A10E82FF0E0E45BF04F998190838F5F0F
:1027200080931A108093191081E090E0ECCF61E063
:10273000CE0101960E94B212F7CFCF92DF92EF92B4
:10274000FF920F931F93CF93DF93D091191081E0E5
:10275000D13208F09CC0C0911B100E94040A6B018A
:102760007C018091D60F81116CC082E08093D60FDE
:1027700081E08093D80F8FEF8093D50F1092FA0FDE
:10278000D093F90FACE4BFE0E9EDFFE080E0D813AF
:102790008DC01092FB0F8091FB0FCC0FC82BC09304
:1027A000FB0F8091D70F813009F084C01092D70FB2
:1027B0000E94040A6B017C018091FB0F8093BB0097
:1027C00080918D0F90918E0FA0918F0FB091900FEF
:1027D000892B8A2B8B2BA1F00E94040A00918D0F6C
:1027E00010918E0F20918F0F3091900F6C197D09F1
:1027F0008E099F09061717072807390708F442C0F2
:102800008091BC0083FDD8CF85EC8093BC000E94F2
:10281000040A6B017C018091D60F823009F44CC010
:102820008091D50F8F3F09F469C08091D50F803218
:1028300009F466C08091D50F803309F463C084E049
:1028400026C080918D0F90918E0FA0918F0FB09127
:10285000900F892B8A2B8B2B09F483CF0E94040ABB
:1028600000918D0F10918E0F20918F0F3091900F4E
:102870006C197D098E099F09061717072807390764
:1028800008F06FCF80918C0F0E94F71285E01092B4
:102890001A101092191010921C10DF91CF911F91F5
:1028A0000F91FF90EF90DF90CF9008959D919193BD
:1028B0008F5F6DCF85EEA9CF80918D0F90918E0F98
:1028C000A0918F0FB091900F892B8A2B8B2B09F43D
:1028D000A2CF0E94040A00918D0F10918E0F2091BB
:1028E0008F0F3091900F6C197D098E099F09061783
:1028F00017072807390708F08ECFC4CF80E0C7CF6D
:1029000082E0C5CF83E0C3CFEF92FF920F931F9376
:10291000CF93DF937C01C62F8091E3109091E41058
:10292000009709F459C02091E71031E030931C1052
:1029300020931B1010921A1010921910DC01ED91C7
:10294000FC910190F081E02D60E019958701EE2463
:10295000E394F12CD1E0C1508091E3109091E41008
:10296000CF3F91F1B0E2EB16F104D8F00E949D1335
:102970008091E3109091E4102091E710D0931C1007
:1029800020931B1010921A1010921910DC01ED9177
:10299000FC910190F081E02D60E01995EE24E39424
:1029A000F12C8091E3109091E410F8016491DC0126
:1029B000ED91FC910190F081E02D1995BFEFEB1A9C
:1029C000FB0A0F5F1F4FC7CFDF91CF911F910F9170
:1029D000FF90EF900C949D13E091F310F091F410A0
:1029E00090818091F9108095892380838701C1505F
:1029F00008F438C0F80184912091E1103091E21080
:102A0000232B29F00E94A7120F5F1F4FF0CF28E061
:102A100030E040E8E091EF10F091F0109091F71065
:102A2000582F5423D9F05081952B9083E091F110C9
:102A3000F091F21090815091F810952B9083E091D5
:102A4000F110F091F21050819091F810909595232B
:102A50009083469521503109E9F6D6CF5081909563
:102A60009523E3CFDF91CF911F910F91FF90EF90CE
:102A700008951F93CF93DF93EC018D8D9E8D00976A
:102A800021F1162F29A131E030931C1020931B1047
:102A900010921A1010921910DC01ED91FC91019026
:102AA000F081E02D60E019958D8D9E8DDC01ED911A
:102AB000FC910190F081E02D612F19958D8D9E8DF7
:102AC000DF91CF911F910C949D13ADA5BEA59C9154
:102AD0008BA9809589238C938B8D9C8D892B31F0CC
:102AE000862FDF91CF911F910C94A71228E030E040
:102AF00080E8A9A5BAA599A9462F4823C1F04C9111
:102B0000942B9C93ABA5BCA59C914AA9942B9C9318
:102B1000ABA5BCA54C919AA9909594239C938695BE
:102B20002150310931F7DF91CF911F9108954C91D8
:102B300090959423E6CFDF92EF92FF920F931F932D
:102B4000CF93DF938091E3109091E410892B09F4E7
:102B500098C02091FB103091FC104091FD105091D5
:102B6000FE1060E074E284EF90E00E944C2220515D
:102B70003109410951095695479537952795209375
:102B8000B80065E082E99CE00E9484146091CA105C
:102B9000615086EC90E10E9439152091CC10309163
:102BA000CD10C901079697FD079633E09595879557
:102BB0003A95E1F72091CA103091CB10829F8001A5
:102BC000839F100D929F100D1124C091E510D0919C
:102BD000E6108091E3109091E4100C0F1D1F0097F8
:102BE00009F48FC02091E71031E030931C1020933E
:102BF0001B1010921A1010921910DC01ED91FC912B
:102C00000190F081E02D60E41995EE24E394F12C1D
:102C1000DD24D3948091E3109091E4100C171D07EC
:102C200009F446C0B0E2EB16F104D8F00E949D13FF
:102C30008091E3109091E4102091E710D0921C1045
:102C400020931B1010921A1010921910DC01ED91B4
:102C5000FC910190F081E02D60E41995EE24E3945D
:102C6000F12C8091E3109091E4106991DC01ED91D9
:102C7000FC910190F081E02D1995BFEFEB1AFB0A52
:102C8000C9CF8091E1109091E210892B31F08091B1
:102C90000411909105110E94AE12E091F510F0918F
:102CA000F61090818091FA1080958923808369CFF6
:102CB0000E949D138091E3109091E410892B09F4F8
:102CC00061C02091FF10309100114091011150918D
:102CD000021160E074E284EF90E00E944C222051E7
:102CE0003109410951095695479537952795209304
:102CF000B800DF91CF911F910F91FF90EF90DF907F
:102D00000895E091F310F091F41080819091F91002
:102D1000892B80830C171D0769F289912091E1109E
:102D20003091E210232B19F00E94A712F3CF28E074
:102D300030E040E8E091EF10F091F0109091F71042
:102D4000582F5423D9F05081952B9083E091F110A6
:102D5000F091F21090815091F810952B9083E091B2
:102D6000F110F091F21050819091F8109095952308
:102D70009083469521503109E9F6CCCF508190954A
:102D80009523E3CFE091F510F091F61080819091BA
:102D9000FA10892B8083ADCF1F93CF93DF93EC0183
:102DA000162F8D8D9E8D892BB1F12DA93EA94FA98E
:102DB00058AD60E074E284EF90E00E944C22205114
:102DC0003109410951095695479537952795209323
:102DD000B80066EA111167EACE010E9439158D8D9F
:102DE0009E8D892B41F129AD3AAD4BAD5CAD60E0D4
:102DF00074E284EF90E00E944C2220513109410995
:102E0000510956954795379527952093B800DF913E
:102E1000CF911F9108958B8D9C8D892B21F08EADC4
:102E20009FAD0E94AE12EFA5F8A990818CA9809564
:102E300089238083CECFEFA5F8A980819CA9892B17
:102E40008083E5CF90E080E008958F929F92AF92CB
:102E5000BF92CF92DF92EF92FF920F931F93CF9387
:102E6000DF935C016B01EE24E394F12C02E310E0AC
:102E700020E830E042E350E070E060E086EC90E172
:102E80000E94C80DE50145019394560187E0A80E04
:102E9000B11C85E0C80ED11C9E012C5F3F4FEE2473
:102EA000E394F12C8501A501BE0186EC90E10E941E
:102EB000C80D9E01235F3F4FBE01665F7F4F8601B5
:102EC000A60186EC90E10E94C80D9E012E5E3F4F48
:102ED000BE01605F7F4F8501A50186EC90E10E94F5
:102EE000C80D9E01265E3F4FBE01675E7F4F860183
:102EF000A60186EC90E10E94C80DA096C815D905E0
:102F000059F6DF91CF911F910F91FF90EF90DF90D5
:102F1000CF90BF90AF909F908F900895AF92BF9247
:102F2000CF92DF92EF92FF920F931F93CF93DF9395
:102F30007C0180911110811160C054E4C52E5BE0CA
:102F4000D52EEB0164EBA62E6EE0B62E10E000E06D
:102F5000F801EE0FFF1FEC0DFD1D8081918101979F
:102F600051F421E030E0AE01B701600F711F86EC33
:102F700090E10E94F7110F5F1F4F0431110541F7D7
:102F800088E2C80ED11C2196AC14BD04F9F6DF917D
:102F9000CF911F910F91FF90EF90DF90CF90BF9056
:102FA000AF900895029799F794E6C92E94E0D92E30
:102FB000EB0110E000E0F801EE0FFF1FEC0DFD1D2E
:102FC00080819181019751F421E030E0AE01B70199
:102FD000600F711F86EC90E10E94F7110F5F1F4F89
:102FE0000431110541F788E2C80ED11C219684ED09
:102FF000C81687E0D806E9F6CACF80910C109091E8
:103000000D108130910571F634EDC32E37E0D32ECB
:10301000EB0110E000E0F801EE0FFF1FEC0DFD1DCD
:1030200080819181019751F421E030E0AE01B70138
:10303000600F711F86EC90E10E94F7110F5F1F4F28
:103040000431110541F788E2C80ED11C219684E4B1
:10305000C8168BE0D806E9F69ACFCF92DF92EF92AE
:10306000FF920F931F93CF93DF936C019CE0E92EA7
:1030700092E0F92EEB0110E000E0F801EE0FFF1FE7
:10308000EE0DFF1D80819181019751F421E030E028
:10309000AE01B601600F711F86EC90E10E94F7113E
:1030A0000F5F1F4F0F30110541F78EE1E80EF11C45
:1030B000219684E6E81684E0F806E9F6DF91CF91E0
:1030C0001F910F91FF90EF90DF90CF9008956F9236
:1030D0007F928F929F92AF92BF92CF92DF92EF92A8
:1030E000FF920F931F93CF93DF93EC016B014B0182
:1030F00082E0880E911C21E030E0A401BE0186EC44
:1031000090E10E94F71156018FEFA81AB80A9E01AC
:103110002E5F3F4FBE016F5F7F4FEE24E394F12C93
:103120008501A50186EC90E10E94C80D9E012B5FF0
:103130003F4FBE016D5F7F4F8601A60186EC90E197
:103140000E94C80DBE016A5F7F4F21E030E0A501FB
:1031500086EC90E10E94F7113E018AE0680E711C36
:10316000BE01695F7F4F9301A60186EC90E10E944A
:10317000C80D9E01255F3F4F8501A501B30186EC77
:1031800090E10E94C80D9E01245F3F4FBE016C5F1D
:103190007F4F8401A40186EC90E10E94C80DDF916D
:1031A000CF911F910F91FF90EF90DF90CF90BF9044
:1031B000AF909F908F907F906F9008952091CC104A
:1031C0003091CD10C901079697FD079623E095959C
:1031D00087952A95E1F72091CA103091CB10829FF4
:1031E000A001839F500D929F500D112470E060E06C
:1031F0008091E5109091E6100C94AF230E94AA23D1
:10320000FB0101900020E9F73197AF01461B570BF6
:10321000DC01ED91FC910280F381E02D19940F9374
:103220001F93CF93DF93EC010E9400198C0164E09F
:103230007FE0CE010E940019800F911FDF91CF9196
:103240001F910F91089585ED8093BC0080918D0FA3
:1032500090918E0FA0918F0FB091900F0796A11DA6
:10326000B11D23E0B695A795979587952A95D1F737
:103270002091BC0024FD03C01092D60F0895409108
:103280008D0F50918E0F60918F0F7091900F452B85
:10329000462B472B69F30097A105B10541F025E3C3
:1032A0002A95F1F700000197A109B109E1CF8091BA
:1032B0008C0F0C94F7121F920F920FB60F921124DD
:1032C0000BB60F922F933F934F935F936F937F9320
:1032D0008F939F93AF93BF93EF93FF938DE190E113
:1032E0000E945508FF91EF91BF91AF919F918F91EF
:1032F0007F916F915F914F913F912F910F900BBEF6
:103300000F900FBE0F901F9018951F920F920FB63F
:103310000F9211240BB60F922F938F939F93EF93DD
:10332000FF93E0912D10F0912E108081E0913310E9
:10333000F091341082FD1DC09081809136108F5F16
:103340008F7320913710821741F0E0913610F0E032
:10335000E35EFF4E958F80933610FF91EF919F9122
:103360008F912F910F900BBE0F900FBE0F901F905B
:1033700018958081F2CF1F920F920FB60F921124F1
:103380002F933F938F939F93AF93BF938091FD0FA4
:103390009091FE0FA091FF0FB09100103091FC0FA3
:1033A00023E0230F2D3758F50196A11DB11D209361
:1033B000FC0F8093FD0F9093FE0FA093FF0FB0932F
:1033C00000108091011090910210A0910310B09113
:1033D00004100196A11DB11D80930110909302105D
:1033E000A0930310B0930410BF91AF919F918F9160
:1033F0003F912F910F900FBE0F901F90189526E8C8
:10340000230F0296A11DB11DD2CF1F920F920FB6AE
:103410000F9211240BB60F922F933F934F935F930C
:103420006F937F938F939F93AF93BF93EF93FF938C
:103430008091B900887F803609F44DC008F040C003
:10344000883209F4A9C028F5803109F49DC0C8F478
:10345000882309F4FBC0883009F496C0FF91EF91EE
:10346000BF91AF919F918F917F916F915F914F919C
:103470003F912F910F900BBE0F900FBE0F901F909A
:103480001895883109F488C0803241F78093D50FB0
:1034900014C0803409F49DC040F48033B9F38833FC
:1034A000E9F68093D50F85ECB0C0803509F485C06E
:1034B000883509F496C0883489F60E942319CECF46
:1034C000883909F48CC038F5883729F050F48836EB
:1034D00011F0803719F683E08093D60F1092D40F45
:1034E00057C0883809F47BC0803919F0803809F05A
:1034F000B5CF8091D40F803208F071C0E091D40F25
:1035000081E08E0F8093D40F8091BB00F0E0EC54EB
:10351000F04F80833DC0803B39F0E0F4803A09F4FD
:1035200079C0883A09F09ACF84E08093D60F109240
:10353000B30F1092B20FE0910810F0910910199595
:103540008091B20F81110FC081E08093B20F109271
:10355000920F09C0803C09F4A6CF883C09F4A3CFA0
:10356000883B09F07BCFE091B30F81E08E0F809311
:10357000B30FF0E0EE56F04F80818093BB00909146
:10358000B30F8091B20F29C08091FB0F8093BB00D5
:1035900085EC8093BC0062CF9091FA0F8091F90F77
:1035A000981758F5E091FA0F81E08E0F8093FA0F8B
:1035B000F0E0E752F04F8081E9CFE091FA0F81E02F
:1035C0008E0F8093FA0F8091BB00F0E0E752F04F2E
:1035D00080839091FA0F8091F90F9817C8F285E8CF
:1035E000D8CFE091FA0F81E08E0F8093FA0F80918F
:1035F000BB00F0E0E752F04F80838091D80F81113B
:103600005CCF81E08093D70F84EA8093BC00109256
:10361000D60F24CF85EC8093BC001092D60F8091FA
:10362000D40F803230F4E091D40FF0E0EC54F04F3E
:1036300010826091D40F70E0E0910610F0910710B5
:1036400084EB9FE019951092D40F08CF1092D50FFC
:1036500034CFEDE1F0E11382128248EE53E060E0F6
:1036600070E0448355836683778388EB9EE0918383
:10367000808385EC90E09587848784EC90E0978741
:10368000868780EC90E0918B808B81EC90E0938B2F
:10369000828B82EC90E0958B848B86EC90E0978B0C
:1036A000868B118E128E138E148EAAEBB0E11396B8
:1036B0001C921E92129714964D935D936D937C937A
:1036C00017978AEC9EE011969C938E93E6ECF0E1BE
:1036D0001382128220E830E03583248380E490E076
:1036E000978386833187208793878287168A1586FA
:1036F00014861786168681E0858B848B2FEF3FEF2B
:10370000338B228B318B208B878B108E128E118EF8
:103710008CED9EE091838083148E138EB68FA58FDF
:1037200010A2178E8FEF84A385A386A387A380A7FB
:1037300080E89AE1A6E0B0E085AB96ABA7ABB0AF6E
:1037400080EA96E8A1E0B0E081AF92AFA3AFB4AF5A
:1037500080E586AF17AE0895789484B5826084BD05
:1037600084B5816084BD85B5826085BD85B5816085
:1037700085BD80916E00816080936E001092810003
:1037800080918100826080938100809181008160BE
:10379000809381008091800081608093800080917F
:1037A000B10084608093B1008091B000816080930B
:1037B000B00080919100826080939100809191008F
:1037C000816080939100809190008160809390004F
:1037D0008091A10082608093A1008091A10081600E
:1037E0008093A1008091A00081608093A0008091CF
:1037F0002101826080932101809121018160809369
:1038000021018091200181608093200180917A00C4
:10381000846080937A0080917A00826080937A003D
:1038200080917A00816080937A0080917A0080682C
:1038300080937A001092C10062E085E00E94D30973
:1038400062E084E00E94D309E0912D10F0912E10E7
:1038500082E08083E0912910F0912A101082E0919B
:103860002B10F0912C1080E1808310923510E091A4
:103870003110F091321086E08083E0912F10F091AA
:103880003010808180618083E0912F10F0913010A2
:10389000808188608083E0912F10F09130108081CA
:1038A00080688083E0912F10F091301080818F7DAF
:1038B00080838091E5109091E610892B41F520914D
:1038C000CC103091CD10C901079697FD0796B3E053
:1038D00095958795BA95E1F72091CA103091CB1054
:1038E000AC01429FC001439F900D529F900D112447
:1038F0000E9485229093E6108093E510892B39F47D
:1039000067E07FE08DE190E10E940F19FFCF0E94F8
:10391000DE182091CC103091CD108091CA1090917A
:10392000CB10B901213231050CF46FC1605471091B
:1039300077FF02C06F5F7F4F75956795825591093C
:1039400097FD019600E410E022E530E042ED59E0F9
:10395000959587950E94430F82E08093E8108091AF
:10396000E3109091E410892B09F462C18CE38093F9
:10397000E71010920B1010920A1010921A10109269
:1039800019100E94D9128FED97E09093091080933F
:10399000081080EE97E090930710809306108091B6
:1039A000EE1087FD1EC061E00E94D30961E08091A6
:1039B000EE100E94A50961E070E080E090E00E94B6
:1039C000290A60E08091EE100E94A5096AE070E08B
:1039D00080E090E00E94290A61E08091EE100E9450
:1039E000A5098091E3109091E410892B09F4DFC1BF
:1039F0002091FB103091FC104091FD105091FE1071
:103A000060E074E284EF90E00E944C222051310982
:103A10004109510956954795379527952093B80048
:103A200064E088E497E00E9484146091CC106150B7
:103A300086EC90E10E94391564E084E497E00E94EE
:103A400084148091E81060E1813009F064E186EC33
:103A500090E10E94391564E080E497E00E948414AC
:103A60008FE8809303118091CA109091CB10803819
:103A7000910509F0B5C18091CC109091CD108034A2
:103A8000910509F0BDC18091E810813009F0A6C10F
:103A90008FE980930311C2E16AED86EC90E10E9408
:103AA00039156C2F86EC90E10E94391561E886EC9F
:103AB00090E10E9439156091031186EC90E10E941B
:103AC000391569ED86EC90E10E9439158091E81076
:103AD00062E2813009F061EF86EC90E10E943915D5
:103AE00066E08AE397E00E9484148091E31090914D
:103AF000E410892B09F488C12091FF103091001146
:103B0000409101115091021160E074E284EF90E065
:103B10000E944C222051310941095109569547957F
:103B2000379527952093B8000E94DE181092181040
:103B300081E090E090930D1080930C100E94C221C0
:103B40002AE030E040E050E00E941A226A567F4F9F
:103B50008F4F9F4F70930F1060930E108AE090E08C
:103B600090931510809314108EE690E090931310AC
:103B7000809312105AE0452E512C612C712CC1E01B
:103B8000D0E004E210E06AE0862E912C33243394D6
:103B90003CE2C32ED12C4EE1A42EB12C8091181002
:103BA000882309F43BC124E1A22EB12CDD24D39457
:103BB00082E8E82EF12C92E0292E312C8091111010
:103BC000882309F47BC30E94DE1884E00E947C09EC
:103BD0002091000230910102892B09F080C180916F
:103BE000101081116EC32C31310509F078C1D092CB
:103BF000101080911010882309F476C12C503109DF
:103C000030930102209300026FC16052710977FF67
:103C100002C06F5F7F4F759567958357910997FD38
:103C2000019600E210E023E730E042EF57E090CE4B
:103C300061E08091EC100E94D30961E08091ED1069
:103C40000E94D3098091EC10082E000C990BFC0106
:103C5000E455F84FE491F0E0EE0FFF1FEE56F84FF9
:103C6000259134913093F4102093F310FC01E45B20
:103C7000F84FE491E093F9108091ED10082E000CBC
:103C8000990BFC01E455F84FE491F0E0EE0FFF1FB3
:103C9000EE56F84FA591B491B093F610A093F5109D
:103CA000FC01E45BF84FE491E093FA108C91E82B6F
:103CB000EC938091E1109091E210892B09F434C0CB
:103CC000CFB7F89480910510811127C0E1EEF7E09D
:103CD0008491E1E8F7E09491E82FF0E0EE0FFF1F08
:103CE000E05EF84FA591B491EC91E92321F461E0F5
:103CF00085E30E94A50961E085E30E94D3098CB5A4
:103D000080618CBD8CB580648CBD61E084E30E94D1
:103D1000D30961E083E30E94D309809105108F5F8E
:103D200080930510CFBF3BCE61E08091EA100E94E6
:103D3000D30961E08091EB100E94D3098091EA10D1
:103D4000082E000C990BFC01E455F84FE491F0E0CB
:103D5000EE0FFF1FEE56F84F259134913093F0107F
:103D60002093EF10FC01E45BF84FE491E093F7102F
:103D70008091EB10082E000C990BFC01E455F84FD4
:103D8000E491F0E0EE0FFF1FEE56F84FA591B491CD
:103D9000B093F210A093F110FC01E45BF84FE491B2
:103DA000E093F8108C91E095E823EC93F8CD8091A6
:103DB000E1109091E210892B31F0809104119091E3
:103DC00005110E94AE12E091F510F091F61090816D
:103DD0008091FA1080958923808322CE8FEC59CE72
:103DE0008036910569F48091CC109091CD10409768
:103DF00039F48091E810813029F480E18093031137
:103E0000C2E04ACE8FEAFACFE091F510F091F610B9
:103E100080819091FA10892B808386CE0E94DE18D3
:103E20003092DA103092DB1081E090E09093D9105C
:103E30008093D8109093D7108093D61044E250E02E
:103E40005093D3104093D2108AE090E09093D51015
:103E50008093D41062E27FE086EC90E10E940F191B
:103E6000D092D310C092D210B092D510A092D4109C
:103E70006DE27FE086EC90E10E940F19E090161051
:103E8000F09017106CE170E0C7010A960E948E173F
:103E900062E370E0C7010E9425176AE070E080913C
:103EA0001410909115100E9467186AE070E08091DC
:103EB0001210909113100E94671885E00E947C09EF
:103EC000892B39F430921810309211100E949B15F2
:103ED00065CE84E00E947C09892BA1F3F7CF2C3FAB
:103EE0009FEF39070CF085CE80910002909101027E
:103EF0008B3F2FEF920759F420911010211110924F
:103F000010100596909301028093000203C08C313B
:103F10009105BCF380910002909101024D9734F01D
:103F20004CE150E050930102409300028091161042
:103F3000909117100497909317108093161020916A
:103F40000E1030910F102450310930930F10209330
:103F50000E10209114103091151022503109309319
:103F6000151020931410209112103091131022502C
:103F70003109309313102093121062E370E00E9415
:103F800025176EE170E080910E1090910F100E9445
:103F90002D186AE070E080911410909115100E9425
:103FA00067186AE070E080911210909113100E94DF
:103FB0006718809116109091171080385FEF950761
:103FC00034F480589F4F909317108093161080916F
:103FD0000E1090910F10803B9F4F74F40E94C221ED
:103FE000A30192010E941A226A567F4F8F4F9F4F62
:103FF00070930F1060930E10809114109091151013
:10400000823E9F4F24F4F0921510E092141080919C
:10401000121090911310823E9F4F24F4F0921310CF
:10402000E092121060910002709101028AE090E02B
:104030000E948E1760910E1070910F104EE150E0AB
:1040400080910002909101020E9481068823E9F18B
:104050001092181010921110D092DA10D092DB103A
:10406000D093D910C093D810D093D710C093D61046
:104070001093D3100093D2109092D5108092D41048
:1040800065E37FE086EC90E10E940F191093D31056
:104090000093D210B092D510A092D41061E47FE0CA
:1040A00086EC90E10E940F190E949B1585E00E940A
:1040B0007C09892B31F084E00E947C09892B09F06E
:1040C000B9CFD0921810D09211100E949B1562E3C4
:1040D00070E080E090E00E94290A80910C1090919D
:1040E0000D10019721F430920D1020920C100E94B7
:1040F000DE18809116109091171004979093171066
:104100008093161020910E1030910F102450310919
:1041100030930F1020930E10209114103091151031
:104120002250310930931510209314102091121051
:104130003091131022503109309313102093121034
:1041400062E370E00E9425176EE170E080910E102E
:1041500090910F100E942D186AE070E08091141069
:10416000909115100E9467186AE070E0809112101B
:10417000909113100E94671880911610909117105B
:1041800080382FEF920734F480589F4F9093171088
:104190008093161080910E1090910F10803B9F4FCE
:1041A00074F40E94C221A30192010E941A226A564D
:1041B0007F4F8F4F9F4F70930F1060930E10809121
:1041C000141090911510823E9F4F24F4F092151018
:1041D000E09214108091121090911310823E9F4F24
:1041E00024F4F0921310E09212106091000270918A
:1041F00001028AE090E00E948E1760910E1070918B
:104200000F104EE150E080910002909101020E9457
:1042100081068823E9F11092181010921110D092A3
:10422000DA10D092DB10D093D910C093D810D0936D
:10423000D710C093D6101093D3100093D210909241
:10424000D5108092D41065E37FE086EC90E10E9467
:104250000F191093D3100093D210B092D510A092E2
:10426000D41061E47FE086EC90E10E940F190E9477
:104270009B1585E00E947C09892B31F084E00E9427
:104280007C09892B09F0B9CFD0921810D092111067
:104290000E949B1562E370E080E090E00E94290A92
:1042A00080910C1090910D10029709F087CC41E09D
:1042B00050E050930D1040930C1078CC0E94E4080D
:1042C00065CC2C3F5FEF35070CF40ECE97CC8CED10
:1042D0009EE09093C7108093C6108091E510909156
:1042E000E610009711F00C94212308958F929F926D
:1042F000AF92BF92CF92DF92EF92FF92CF93DF9374
:10430000EC01688179818A819B8161157105810544
:10431000910521F464E279ED8BE597E02DE133EF2F
:1043200041E050E00E941A2249015A019B01AC0170
:10433000A7EAB1E40E9439226B017C01ACEEB4EF34
:10434000A50194010E944722C60ED71EE81EF91E41
:10435000F7FE06C081E0C81AD108E10880E8F80A33
:10436000C882D982EA82FB82C701B6019F77DF91BA
:10437000CF91FF90EF90DF90CF90BF90AF909F9044
:104380008F9008958F929F92AF92BF92CF92DF92BB
:10439000EF92FF92609102027091030280910402F9
:1043A00090910502611571058105910521F464E282
:1043B00079ED8BE597E02DE133EF41E050E00E948D
:1043C0001A2249015A019B01AC01A7EAB1E40E94FB
:1043D00039226B017C01ACEEB4EFA50194010E947F
:1043E0004722C60ED71EE81EF91EF7FE06C081E062
:1043F000C81AD108E10880E8F80AC0920202D092F7
:104400000302E0920402F0920502C701B6019F7711
:10441000FF90EF90DF90CF90BF90AF909F908F90E4
:1044200008956093020270930302809304029093B4
:1044300005020895052E97FB1EF400940E94312278
:1044400057FD07D00E944C2207FC03D04EF40C9479
:10445000312250954095309521953F4F4F4F5F4FFA
:10446000089590958095709561957F4F8F4F9F4FE0
:1044700008950E946E22A59F900DB49F900DA49F59
:10448000800D911D11240895B7FF0C9439220E94CC
:104490003922821B930B0895A1E21A2EAA1BBB1B83
:1044A000FD010DC0AA1FBB1FEE1FFF1FA217B30700
:1044B000E407F50720F0A21BB30BE40BF50B661F16
:1044C000771F881F991F1A9469F7609570958095DA
:1044D00090959B01AC01BD01CF010895A29FB00151
:1044E000B39FC001A39F700D811D1124911DB29F28
:1044F000700D811D1124911D0895EE0FFF1F881F5F
:104500008BBF0790F691E02D19940F931F93CF93D3
:10451000DF938230910510F482E090E0E091081181
:10452000F091091130E020E0B0E0A0E0309799F47C
:104530002115310509F44AC0281B390B24303105F7
:10454000D8F58A819B816115710589F1FB019383FF
:104550008283FE0111C0408151810281138148177D
:104560005907E0F04817590799F4109761F012962F
:104570000C93129713961C933296CF01DF91CF9133
:104580001F910F9108950093081110930911F4CF12
:104590002115310551F04217530738F0A901DB010D
:1045A0009A01BD01DF01F801C1CFEF01F9CF90936E
:1045B000091180930811CDCFFE01E20FF31F819303
:1045C00091932250310939832883D7CF2091061146
:1045D00030910711232B41F42091080230910902F8
:1045E00030930711209306112091060230910702A3
:1045F0002115310541F42DB73EB740910A02509183
:104600000B02241B350BE0910611F0910711E21704
:10461000F307A0F42E1B3F0B2817390778F0AC01E5
:104620004E5F5F4F2417350748F04E0F5F1F5093C2
:10463000071140930611819391939FCFF0E0E0E042
:104640009CCFCF93DF930097E9F0FC013297138260
:104650001282A0910811B0910911ED0130E020E023
:104660001097A1F420813181820F931F20910611B0
:10467000309107112817390709F061C0F09307112D
:10468000E0930611DF91CF910895EA01CE17DF077D
:10469000E8F54A815B819E0141155105B1F7E901B9
:1046A000FB83EA8349915991C40FD51FEC17FD078D
:1046B00061F4808191810296840F951FE9019983AD
:1046C0008883828193819B838A83F0E0E0E0129665
:1046D0008D919C9113970097B9F52D913C9111976D
:1046E000CD010296820F931F209106113091071180
:1046F0002817390739F6309751F5109209111092A1
:104700000811B0930711A0930611BCCFD383C283C5
:1047100040815181840F951FC817D90761F44E5FFE
:104720005F4F88819981480F591F518340838A8147
:104730009B81938382832115310509F0B0CFF093DB
:104740000911E09308119ECFFD01DC01C0CF138257
:104750001282D7CF81E090E0F8940C94B623DC016C
:1047600001C06D9341505040E0F7089516E0CDE44C
:10477000D6E000E006C0802FFE010E947D22219637
:10478000011DCE34D10780E00807A9F7F894FFCFC8
:104790001C000100000000000A1180000000000061
:1047A0000000000000000000010001000000000007
:1047B00000000000000000000000000000000000F9
:1047C00000000000010001000100010000000000E5
:1047D00000000000000000000000000000000000D9
:1047E00000000100010001000100000000000000C5
:1047F00000000000000000000000000000000000B9
:1048000001000100010001000000000000000000A4
:104810000000000000000000000000000000010097
:104820000100010001000000000000000100000084
:104830000000000000000000000000000100010076
:104840000100010000000000010001000100000063
:104850000000000000000000000001000100010055
:104860000100000000000100010001000000000044
:104870000000000000000000010001000100010034
:104880000000000001000100010000000000010024
:104890000000000000000100010001000100000014
:1048A0000000010001000100000001000100010002
:1048B00000000000010001000100010001000100F2
:1048C00001000100010000000100010001000000E2
:1048D00000000100010001000100010001000100D1
:1048E00001000000000001000100010000000000C4
:1048F00001000100010001000100010001000000B1
:1049000000000000010001000100000000000100A3
:104910000100010001000000000000000000000094
:104920000000010001000100010001000100010080
:104930000100010000000000000000000000000075
:104940000000010001000100010001000100010060
:104950000100000000000000000000000000000056
:104960000000010001000100010001000100010040
:104970000000000000000000000000000000000037
:104980000000000000000100010001000100000023
:104990000000000000000000000000000000000017
:1049A0000000000001000100010001000000000003
:1049B00000000000000000000000000000000000F7
:1049C00000000100010001000100000000000000E3
:1049D00000000000000000000000000000000000D7
:1049E00001000100010001000000000000000000C3
:1049F00000000000000000000000000000000000B7
:104A000000000000000000000000010001000100A3
:104A10000100010001000100010000000000000091
:104A20000000000000000000000000000000000086
:104A3000010001000100010001000100010001006E
:104A40000100010000000000000000000000000064
:104A50000000000000000000010001000000010053
:104A60000100010001000100010001000000000040
:104A70000000000000000000000000000000000036
:104A8000010001000100010001000100010001001E
:104A90000100010000000000000000000000000014
:104AA0000000000000000000010001000100010002
:104AB00001000100010001000100010000000000F0
:104AC00000000000000000000000000000000000E6
:104AD00001000100010001000100010001000100CE
:104AE00001000100000000000000000000000000C4
:104AF00000000000000000000100010001000100B2
:104B000001000000000000000000000000000000A4
:104B10000000000000000000000000000000000095
:104B2000010001000100010001000100010001007D
:104B30000000000001000000000000000000000074
:104B40000000000000000100010001000100010060
:104B50000000000000000000000000000100000054
:104B60000000000000000000000000000100010043
:104B70000100010001000100000000000000000031
:104B80000000000001000100000000000000000023
:104B9000010001000100010001000100010001000D
:104BA0000100010000000000000000000100010001
:104BB00001000000000001000100010001000100EF
:104BC00001000100010001000000010000000000E0
:104BD00000000000010001000100010001000100CF
:104BE00001000100010001000100010001000100BD
:104BF00000000000000000000000000001000100B3
:104C0000010001000100010001000100010001009C
:104C10000100010001000100000000000000000090
:104C2000000000000000010001000100010001007F
:104C3000010001000100010001000100010000006D
:104C40000000000000000000000000000000000064
:104C5000010001000100010001000100010001004C
:104C60000100010001000000000000000000000041
:104C70000000000000000000000001000100010031
:104C8000010001000100010001000100000000001E
:104C90000000000000000000000000000000000014
:104CA00000000000010001000100010001000100FE
:104CB00001000000000000000000000000000000F3
:104CC00000000000000000000000000000000100E3
:104CD00001000000000001000100000000000000D1
:104CE00000000000000000000000000000000000C4
:104CF00000000000000000000100010000000000B2
:104D000001000000000000000000000000000000A2
:104D10000000000000000000000000000000000093
:104D20000000000000000000010000000000000082
:104D30000000000000000000000000000000000073
:104D40000000000000000000000000000000000063
:104D50000100010000000000000000000000000051
:104D60000000000000000000000000000000000043
:104D70000000000000000000000001000100010030
:104D8000010001000100010001000000000000001E
:104D90000000000000000000000000000000000013
:104DA00001000100010001000100010001000100FB
:104DB00001000100000000000000000000000000F1
:104DC00000000000000000000100010000000100E0
:104DD00001000100010001000100010000000000CD
:104DE00000000000000000000000000000000000C3
:104DF00001000100010001000100010001000100AB
:104E000001000100000000000000000000000000A0
:104E1000000000000000000001000100010001008E
:104E2000010001000100010001000100000000007C
:104E30000000000000000000000000000000000072
:104E4000010001000100010001000100010001005A
:104E50000100010000000000000000000000000050
:104E6000000000000000000001000100010001003E
:104E70000100000000000000000000000000000031
:104E80000000000000000000000000000000000022
:104E9000010001000100010001000100010001000A
:104EA0000000000001000000000000000000000001
:104EB00000000000000001000100010001000100ED
:104EC00000000000000000000000000001000000E1
:104ED00000000000000000000000000001000100D0
:104EE00001000100010001000000000000000000BE
:104EF00000000000010001000000000000000000B0
:104F00000100010001000100010001000100010099
:104F1000010001000000000000000000010001008D
:104F2000010000000000010001000100010001007B
:104F3000010001000100010000000100000000006C
:104F4000000000000100010001000100010001005B
:104F50000100010001000100010001000100010049
:104F6000000000000000000000000000010001003F
:104F70000100010001000100010001000100010029
:104F8000010001000100010000000000000000001D
:104F9000000000000000010001000100010001000C
:104FA00001000100010001000100010001000000FA
:104FB00000000000000000000000000000000000F1
:104FC00001000100010001000100010001000100D9
:104FD00001000100010000000000000000000000CE
:104FE00000000000000000000000010001000100BE
:104FF00001000100010001000100010000000000AB
:1050000000000000000000000000000000000000A0
:10501000000000000100010001000100010001008A
:10502000010000000000000000000000000000007F
:10503000000000000000000000000000000001006F
:10504000010001000000000001000100010000005B
:105050000000000000000000000000000000000050
:10506000000000000000010001000000000000003E
:105070000000000000000000000000000000000030
:10508000000000000000000000000000000001001F
:105090000000000000000000000000000000000010
:1050A0000000000000000000000000000000000000
:1050B00000000000000001000100000000000000EE
:1050C00000000000000000000000000000000000E0
:1050D00000000000000000000000000000000000D0
:1050E00000000000000000000000010001000100BD
:1050F00001000100010001000100000000000000AB
:10510000000000000000000000000000000000009F
:105110000100010001000100010001000100010087
:10512000010001000000000000000000000000007D
:10513000000000000000000001000100000001006C
:105140000100010001000100010001000000000059
:10515000000000000000000000000000000000004F
:105160000100010001000100010001000100010037
:10517000010001000000000000000000000000002D
:10518000000000000000000001000100010001001B
:105190000100010001000100010001000000000009
:1051A00000000000000000000000000000000000FF
:1051B00001000100010001000100010001000100E7
:1051C00001000100000000000000000000000000DD
:1051D00000000000000000000100010001000100CB
:1051E00001000000000000000000000000000000BE
:1051F00000000000000000000000000000000000AF
:105200000100010001000100010001000100010096
:10521000000000000100000000000000000000008D
:105220000000000000000100010001000100010079
:10523000000000000000000000000000010000006D
:10524000000000000000000000000000010001005C
:10525000010001000100010000000000000000004A
:10526000000000000100010000000000000000003C
:105270000100010001000100010001000100010026
:10528000010001000000000000000000010001001A
:105290000100000000000100010001000100010008
:1052A00001000100010001000000010000000000F9
:1052B00000000000010001000100010001000100E8
:1052C00001000100010001000100010001000100D6
:1052D00000000000000000000000000001000100CC
:1052E00001000100010001000100010001000100B6
:1052F00001000100010001000000000000000000AA
:105300000000000000000100010001000100010098
:105310000100010001000100010001000100000086
:10532000000000000000000000000000000000007D
:105330000100010001000100010001000100010065
:10534000010001000100000000000000000000005A
:10535000000000000000000000000100010001004A
:105360000100010001000100010001000000000037
:10537000000000000000000000000000000000002D
:105380000000000001000100010001000100010017
:10539000010000000000000000000000000000000C
:1053A00000000000000000000000000000000100FC
:1053B00001000100000001000100000000000000E9
:1053C00000000000000000000000000000000000DD
:1053D00000000000000001000100000000000000CB
:1053E00001000000000000000000000000000000BC
:1053F00000000000000000000000000000000100AC
:10540000000000000000000001000000000000009B
:10541000000000000000000000000000000000008C
:10542000000000000000010001000000000000007A
:10543000010001000000000000000000000000006A
:1054400000000000000000007708E1070E08C40813
:105450003F081D083108000000006E134113221799
:10546000DE073A132713181300000000970CE1071A
:105470002217B112F711DE073C0F140F300F240F63
:10548000A40FDE075D0ACC166711B0115D0E400E49
:10549000C80D690D0D0A004E6F20736520656E639F
:1054A0006F6E74726F206C612070616E74616C6CD1
:1054B000610044696E6F73617572696F00496E694E
:1054C0006369617200486173207065726469646F1A
:0C54D00000436F6E74696E7561723F00DE
:020000040003F7
:10E000000D9489F10D94B2F10D94B2F10D94B2F129
:10E010000D94B2F10D94B2F10D94B2F10D94B2F1F0
:10E020000D94B2F10D94B2F10D94B2F10D94B2F1E0
:10E030000D94B2F10D94B2F10D94B2F10D94B2F1D0
:10E040000D94B2F10D94B2F10D94B2F10D94B2F1C0
:10E050000D94B2F10D94B2F10D94B2F10D94B2F1B0
:10E060000D94B2F10D94B2F10D94B2F10D94B2F1A0
:10E070000D94B2F10D94B2F10D94B2F10D94B2F190
:10E080000D94B2F10D94B2F10D94B2F10D94B2F180
:10E090000D94B2F10D94B2F10D94B2F10D94B2F170
:10E0A0000D94B2F10D94B2F10D94B2F10D94B2F160
:10E0B0000D94B2F10D94B2F10D94B2F10D94B2F150
:10E0C0000D94B2F10D94B2F10D94B2F10D94B2F140
:10E0D0000D94B2F10D94B2F10D94B2F10D94B2F130
:10E0E0000D94B2F141546D656761323536300041AF
:10E0F000726475696E6F206578706C6F72657220DE
:10E1000073746B3530305632206279204D4C530099
:10E11000426F6F746C6F616465723E004875683F52
:10E1200000436F6D70696C6564206F6E203D200048
:10E130004350552054797065202020203D20005FF9
:10E140005F4156525F415243485F5F3D2000415658
:10E1500052204C696243205665723D20004743437C
:10E160002056657273696F6E203D20004350552024
:10E1700049442020202020203D20004C6F7720663D
:10E18000757365202020203D20004869676820665F
:10E190007573652020203D200045787420667573D6
:10E1A00065202020203D20004C6F636B2066757336
:10E1B000652020203D20004D617220203720323024
:10E1C000313300312E362E3800342E332E350056A2
:10E1D00023202020414444522020206F7020636F70
:10E1E00064652020202020696E73747275637469E1
:10E1F0006F6E2061646472202020496E74657272B3
:10E20000757074006E6F20766563746F7200726A49
:10E210006D702020006A6D70200057686174207056
:10E220006F72743A00506F7274206E6F7420737541
:10E2300070706F72746564004D7573742062652030
:10E2400061206C6574746572002000577269747483
:10E25000696E672045450052656164696E672045B7
:10E26000450045452065727220636E743D00504F35
:10E27000525400303D5A65726F2061646472003FF1
:10E280003D43505520737461747300403D454550C3
:10E29000524F4D207465737400423D426C696E6B41
:10E2A000204C454400453D44756D70204545505215
:10E2B0004F4D00463D44756D7020464C415348001B
:10E2C000483D48656C70004C3D4C69737420492F83
:10E2D0004F20506F72747300513D51756974005234
:10E2E0003D44756D702052414D00563D73686F7707
:10E2F00020696E7465727275707420566563746FF0
:10E30000727300593D506F727420626C696E6B00BD
:10E310002A0011241FBECFEFD1E2DEBFCDBF01E046
:10E320000CBF12E0A0E0B2E0EEE1FDEF03E00BBFB6
:10E3300002C007900D92A030B107D9F712E0A0E01B
:10E34000B2E001C01D92AE30B107E1F70F9460F367
:10E350000D948DFE01E20EBF0FEF0DBF11241FBE05
:10E360000D9460F30D9400F020E030E040ED57E0B4
:10E3700005C0FA013197F1F72F5F3F4F2817390792
:10E38000C0F308959C01260F311DC901A0E0B0E043
:10E390002F5F3F4FABBFFC018791882361F08093D3
:10E3A000C6008091C00086FFFCCF8091C0008064D1
:10E3B0008093C000EACF08958DE08093C6008091DD
:10E3C000C00086FFFCCF8091C00080648093C000B5
:10E3D0008AE08093C6008091C00086FFFCCF8091C8
:10E3E000C00080648093C00008950F94C2F10F9420
:10E3F000DCF10895FC019081992359F09093C600B7
:10E400008091C00086FFFCCF8091C0008064809323
:10E41000C0003196992379F70895282F982F929567
:10E420009F70892F805D8A3308F0895F8093C600D2
:10E430008091C00086FFFCCF8091C00080648093F3
:10E44000C000822F8F70982F905D9A3308F0995FEB
:10E450009093C6008091C00086FFFCCF8091C000E1
:10E4600080648093C00008959C01FB01853691056E
:10E470001CF46330710594F0C90164E670E00F94F8
:10E480002EFE605D7F4F6093C6008091C00086FFC6
:10E49000FCCF8091C00080648093C0002B30310598
:10E4A00014F43297B4F0C90164E670E00F942EFEC4
:10E4B0006AE070E00F942EFE605D7F4F6093C600AF
:10E4C0008091C00086FFFCCF8091C0008064809363
:10E4D000C000C9016AE070E00F942EFEC0968093E0
:10E4E000C6008091C00086FFFCCF8091C000806490
:10E4F0008093C00008951F93182F8EE692EE60E07F
:10E500000F94C2F11093C6008091C00086FFFCCF2B
:10E510008091C00080648093C0000F94DCF11F9153
:10E5200008952F923F924F925F926F927F928F92B7
:10E530009F92AF92BF92CF92DF92EF92FF920F9392
:10E540001F93DF93CF93CDB7DEB762970FB6F894E2
:10E55000DEBF0FBECDBF382E622ECA01DB015C01CB
:10E560006D01772420E2222E2E010894411C511CBB
:10E570008BC081E0A81680E0B80681E0C80680E084
:10E58000D80628F0C601AA27BB270F940DF2BB2797
:10E59000AD2D9C2D8B2D0F940DF28A2D0F940DF225
:10E5A0002092C6008091C00086FFFCCF8091C00001
:10E5B00080648093C0009DE29093C6008091C0006B
:10E5C00086FFFCCF8091C00080648093C0002092C1
:10E5D000C6008091C00086FFFCCF8091C00080649F
:10E5E0008093C00019828601750188249924A1E0D6
:10E5F0003A1651F03A1620F0B2E03B1661F409C029
